Written Problems:

Problem #1:

1) Alice can be sure she is talking to Bob because she initiates the
connection with a nonce and not something sensitive like a key, can verify
Bob's identify by using K_AB to decrypt Bob's message and verify the nonce she
sent as well as match the timestamp to her clock.

2) Bob an be sure he is talking to Alice since in addition to his nonce, only the
encrypted Alice nonce and time stamp are included in his message. the included
time stamp verifies that a malicious attacker would be unable to martch r_A to
E_K_AB (r_A), which would allow an attacker to match plaintext to ciphertext.
The message from Alice verfies that Alice is trustworthy, since only Alice
could know K_AB on her own and not from Bob's message.

Problem #2:

Bob is not assured his is talking to Alice. Bob's message contains both R and
an encrypted version of R using his own key; a potential attacker would only
have to match a decrypted version of R to guess his key, and without a
timestamp it is impossible for Bob to know hwo long a response would take (not
to mention, him being stateless prevents Bob from remembering what time he
sent his response). Since Alice's response contains two different encrypted
versions of R (K_B, K_AB) without R itself, therefore Bob has no way of
verifying a correct response from Alice since R is forgotten.

A modified version of the protocol is as follows:

(1) Alice ---"I'm Alice"---------------------> Bob
(2) Alice <--E_K_AB("Prove it", timestamp)---- Bob
(3) Alice ---E_K_AB("I'm Alice", timestamp)--> Bob

The modified 2 steps in this protocol prevent a malicious host from
determining preshare keys from a plaintext and ciphertext pair as well as
verifying the host has the right shared key without requiring Bob to keep
track of a nonce.

----------------

Tools:

1) nmap

a. 

Normal command: nmap -O ottawa.clic.cs.columbia.edu
Issue: running on clic machine requires root (students not granted root)
Solution: run on Windows 7 machine
Output:

C:\Program Files (x86)\Nmap>nmap -O ottawa.clic.cs.columbia.edu

Starting Nmap 6.40 ( http://nmap.org ) at 2014-03-30 14:06 Eastern Daylight Time

Nmap scan report for ottawa.clic.cs.columbia.edu (128.59.15.37)
Host is up (0.010s latency).
Not shown: 994 closed ports
PORT     STATE    SERVICE
22/tcp   open     ssh
111/tcp  open     rpcbind
135/tcp  filtered msrpc
2049/tcp filtered nfs
5901/tcp open     vnc-1
6001/tcp open     X11:1
No exact OS matches for host (If you know what OS is running on it, see http://n
map.org/submit/ ).
TCP/IP fingerprint:
OS:SCAN(V=6.40%E=4%D=3/30%OT=22%CT=1%CU=38246%PV=N%DS=4%DC=I%G=Y%TM=53385D4
OS:B%P=i686-pc-windows-windows)SEQ(SP=105%GCD=1%ISR=10A%TI=Z%CI=RD%II=I%TS=
OS:8)SEQ(CI=I%II=I)OPS(O1=M56AST11NW7%O2=M56AST11NW7%O3=M56ANNT11NW7%O4=M56
OS:AST11NW7%O5=M56AST11NW7%O6=M56AST11)WIN(W1=3890%W2=3890%W3=3890%W4=3890%
OS:W5=3890%W6=3890)ECN(R=Y%DF=Y%T=40%W=3908%O=M56ANNSNW7%CC=Y%Q=)T1(R=Y%DF=
OS:Y%T=40%S=O%A=S+%F=AS%RD=0%Q=)T2(R=N)T3(R=N)T4(R=Y%DF=Y%T=40%W=0%S=A%A=Z%
OS:F=R%O=%RD=0%Q=)T5(R=Y%DF=Y%T=40%W=0%S=Z%A=S+%F=AR%O=%RD=0%Q=)T6(R=Y%DF=Y
OS:%T=40%W=0%S=A%A=Z%F=R%O=%RD=0%Q=)T7(R=Y%DF=Y%T=40%W=0%S=Z%A=S+%F=AR%O=%R
OS:D=0%Q=)U1(R=Y%DF=N%T=40%IPL=164%UN=0%RIPL=G%RID=G%RIPCK=G%RUCK=G%RUD=G)I
OS:E(R=Y%DFI=N%T=40%CD=S)

Network Distance: 4 hops

OS detection performed. Please report any incorrect results at http://nmap.org/s
ubmit/ .
Nmap done: 1 IP address (1 host up) scanned in 17.55 seconds

No exact match found with nmap -O -- run nmap -A instead

pat2138@brussels:~/cs4180/assignment2$ nmap -A ottawa

Starting Nmap 5.21 ( http://nmap.org ) at 2014-03-30 14:08 EDT
Nmap scan report for ottawa (128.59.15.37)
Host is up (0.00063s latency).
rDNS record for 128.59.15.37: ottawa.clic.cs.columbia.edu
Not shown: 995 closed ports
PORT     STATE SERVICE VERSION
22/tcp   open  ssh     OpenSSH 5.9p1 Debian 5ubuntu1.2 (protocol 2.0)
| ssh-hostkey: 1024 5a:05:a0:d0:70:9f:76:0e:f9:10:81:a9:58:7e:c0:fe (DSA)
|_2048 b7:21:b5:c7:3d:3d:ee:39:9e:3a:84:62:62:f0:c5:00 (RSA)
111/tcp  open  rpcbind
| rpcinfo:
| 100000  2,3,4    111/udp  rpcbind
| 100003  2,3,4   2049/udp  nfs
| 100227  2,3     2049/udp  nfs_acl
| 100005  2      36464/udp  mountd
| 100021  1,3,4  41757/udp  nlockmgr
| 100024  1      45753/udp  status
| 100005  3      47820/udp  mountd
| 100005  1      52641/udp  mountd
| 100000  2,3,4    111/tcp  rpcbind
| 100003  2,3,4   2049/tcp  nfs
| 100227  2,3     2049/tcp  nfs_acl
| 100021  1,3,4  35195/tcp  nlockmgr
| 100024  1      39456/tcp  status
| 100005  1      42205/tcp  mountd
| 100005  2      49615/tcp  mountd
|_100005  3      52700/tcp  mountd
2049/tcp open  rpcbind
5901/tcp open  vnc     VNC (protocol 3.3; Locked out)
6001/tcp open  X11     (access denied)
Service Info: OSs: Linux, Unix

Service detection performed. Please report any incorrect results at http://nmap.org/submit/ .
Nmap done: 1 IP address (1 host up) scanned in 6.30 seconds

Therefore, the OS is determined to be Linux / UNIX

b. 

Command: nmap -p1-4999

pat2138@brussels:~/cs4180/assignment2$ nmap -p1-4999 ottawa.clic.cs.columbia.edu

Starting Nmap 5.21 ( http://nmap.org ) at 2014-03-30 14:10 EDT
Nmap scan report for ottawa.clic.cs.columbia.edu (128.59.15.37)
Host is up (0.00070s latency).
Not shown: 4996 closed ports
PORT     STATE SERVICE
22/tcp   open  ssh
111/tcp  open  rpcbind
2049/tcp open  nfs

Nmap done: 1 IP address (1 host up) scanned in 0.15 seconds

2) wireshark

1. 10.109.146.182
2. Google
3. TLSv1
4. TLS_ECDHE_RSA_WITH_AES_128_CBC_SHA, TLS_ECDHE_ECDSA_WITH_AES_128_CBC_SHA
5. New York Times
6. Russia's Grip Tightens With Shows of Force at Ukrainian Bases
7. 128.59.13.10
8. TLS_DHE_RSA_WITH_AES_256_CBC_SHA
9. dcook-6930p

3) tcpdump

command: tcpdump -xx -r 4180_hw2_capture_03102014.pcap host 128.59.13.10

pat2138@brussels:~/cs4180/assignment2$ tcpdump -xx -r 4180_hw2_capture_03102014.pcap  -c 5 host 128.59.13.10
reading from file 4180_hw2_capture_03102014.pcap, link-type EN10MB (Ethernet)
13:30:25.702779 IP 10.109.146.182.64876 > fireball.cs.columbia.edu.1194: UDP, length 14
        0x0000:  001c 7f33 463a 0021 6a7d 728e 0800 4500
        0x0010:  002a 0e25 0000 8011 0236 0a6d 92b6 803b
        0x0020:  0d0a fd6c 04aa 0016 3cb0 385f 2b5e 9bc0
        0x0030:  e013 b700 0000 0000
13:30:25.714713 IP fireball.cs.columbia.edu.1194 > 10.109.146.182.64876: UDP, length 26
        0x0000:  0021 6a7d 728e 001c 7f33 463a 0800 4500
        0x0010:  0036 0000 4000 3211 1e4f 803b 0d0a 0a6d
        0x0020:  92b6 04aa fd6c 0022 6bcf 4000 a458 6363
        0x0030:  653f 2801 0000 0000 5f2b 5e9b c0e0 13b7
        0x0040:  0000 0000
13:30:25.715299 IP 10.109.146.182.64876 > fireball.cs.columbia.edu.1194: UDP, length 22
        0x0000:  001c 7f33 463a 0021 6a7d 728e 0800 4500
        0x0010:  0032 0e26 0000 8011 022d 0a6d 92b6 803b
        0x0020:  0d0a fd6c 04aa 001e 510a 285f 2b5e 9bc0
        0x0030:  e013 b701 0000 0000 00a4 5863 6365 3f28
13:30:25.726736 IP 10.109.146.182.64876 > fireball.cs.columbia.edu.1194: UDP, length 108
        0x0000:  001c 7f33 463a 0021 6a7d 728e 0800 4500
        0x0010:  0088 0e27 0000 8011 01d6 0a6d 92b6 803b
        0x0020:  0d0a fd6c 04aa 0074 5bc8 205f 2b5e 9bc0
        0x0030:  e013 b700 0000 0001 1603 0100 5901 0000
        0x0040:  5503 0153 1df6 b1e7 1a1f 94d1 9ab9 8678
        0x0050:  9a30 b15e 0e18 2331 6a57 dbe9 34d4 ee2a
        0x0060:  9a8c 0d00 0028 0039 0038 0035 0016 0013
        0x0070:  000a 0033 0032 002f 0005 0004 0015 0012
        0x0080:  0009 0014 0011 0008 0006 0003 00ff 0100
        0x0090:  0004 0023 0000
13:30:25.749122 IP fireball.cs.columbia.edu.1194 > 10.109.146.182.64876: UDP, length 126
        0x0000:  0021 6a7d 728e 001c 7f33 463a 0800 4500
        0x0010:  009a 0000 4000 3211 1deb 803b 0d0a 0a6d
        0x0020:  92b6 04aa fd6c 0086 6a67 2000 a458 6363
        0x0030:  653f 2801 0000 0001 5f2b 5e9b c0e0 13b7
        0x0040:  0000 0001 1603 0100 3502 0000 3103 0153
        0x0050:  1df6 b11b 4257 6c26 8ff7 21c8 fe62 7716
        0x0060:  c20d 6837 eceb ed0d c73d 192d ad24 e700
        0x0070:  0039 0000 09ff 0100 0100 0023 0000 1603
        0x0080:  0107 870b 0007 8300 0780 0003 e630 8203
        0x0090:  e230 8203 4ba0 0302 0102 0201 0130 0d06
        0x00a0:  092a 8648 86f7 0d01

